:020000040800F2
:1000000068060020450300084D0300084F03000860
:1000100051030008530300085503000800000000C6
:10002000000000000000000000000000570300086E
:1000300059030008000000005B0300085D0300088E
:100040005F0300085F0300085F0300080000000072
:10005000000000005F0300085F0300085F03000862
:100060005F030008000000005F0300085F03000852
:100070005F030008000000005F0300085F03000842
:100080005F0300085F030008000000005F03000832
:100090005F030008000000000000000000000000F6
:1000A0000000000000000000000000005F030008E6
:1000B0005F0300085F0300085F0300085F03000898
:1000C00000F002F800F03CF80AA090E8000C82442E
:1000D0008344AAF10107DA4501D100F031F8AFF20B
:1000E000090EBAE80F0013F0010F18BFFB1A43F016
:1000F00001031847180B0000380B0000103A24BF0A
:1001000078C878C1FAD8520724BF30C830C144BF7C
:1001100004680C60704700000023002400250026BE
:10012000103A28BF78C1FBD8520728BF30C148BF5A
:100130000B6070471FB500F062FD1FBD10B510BD0C
:1001400000F023FD1146FFF7F5FF00F071F800F015
:1001500041FD03B4FFF7F2FF03BC00F049FD0000CE
:100160000EB500208DF802008DF8080001208DF8F2
:100170000A008DF809002020ADF800006946054806
:1001800000F00AF90EBD10B52021024800F0A9F9CF
:1001900010BD000000000C4010B500F034FA012042
:1001A00000F044FA00F05EFA08B900BFFEE704214F
:1001B000022000F0CFFA012000F0F7FA00F0FCFA7C
:1001C00008B900BFFEE7012000F0E6FA4FF48070A6
:1001D00000F0B9F90121C80500F0A8F901210806CD
:1001E00000F0A4F910BD00000EB501208DF802004A
:1001F00000208DF8080001208DF80A0003208DF8FA
:1002000009000420ADF800006946084800F0C4F871
:100210000EBD10B504460CB1012000E000200246DE
:100220000421024800F074F910BD000000800B406A
:100230000024FFF7B1FFFFF7D7FFFFF791FF09E0B9
:10024000FFF7A1FF04460CB9012100E00021084698
:10025000FFF7DFFFF4E7000070B5344AD26802F020
:100260000202022A01D1324800E032482F4AD26805
:1002700002F00102012A00D1400801462B4AD2684F
:1002800002F00402042A05D1284A5268C2F303226C
:10029000541C6143254AD268C2F3012222B1012ACB
:1002A00006D0022A1BD115E0224D234E35601BE0FB
:1002B0001E4DED68C5F3031212F0080F06D002F0D0
:1002C000070202259540B1FBF5F300E00B461A4DFD
:1002D0002B6009E04FF40045174E356004E049F605
:1002E0004045154E356000BF00BF70BD00B54FF0F2
:1002F00000601249086012480C49C8610846C0688D
:100300000020C860084640680020486008468068B1
:10031000002088600846006900200861084640699E
:1003200000204861FFF798FF00BD00000000024078
:100330000024F40000127A000000002008ED00E024
:10034000100000080948804709480047FEE7FEE71B
:10035000FEE7FEE7FEE7FEE7FEE7FEE7FEE7FEE775
:1003600004480549054A064B70470000ED020008A5
:10037000C100000868000020680600206802002014
:10038000680200200021C16001614160016081605C
:1003900041618161C16170472DE9FE4F4468856804
:1003A000C6680769D0F814C0D0F81880D0F81C903F
:1003B000002201234FF0030ACDF804A04FF0011AE8
:1003C000CDF800A0B1F800A0CDF808A06AE0DDF8F3
:1003D00008A01AF0010F51D024EA030A91F802B0E4
:1003E0000BFA02FB4AEA0B0491F808A04FEA420B11
:1003F0000AFA0BFADDF804B025EA0B0B4AEA0B0502
:1004000026EA030A91F80AB00BFA02FB4AEA0B0645
:10041000DDF800A027EA0A0A91F803B002F1100EF5
:100420000BFA0EFB4AEA0B0A91F804B00BFA02FB36
:100430004AEA0B07DDF800B02CEA0B0A91F805B088
:100440000BFA0EFB4AEA0B0A91F806B00BFA02FB14
:100450004AEA0B0C91F809A04FEA420B0AFA0BFA90
:10046000DDF804B028EA0B0B4AEA0B0829EA030A74
:1004700091F807B00BFA02FB4AEA0B095B00DDF8C2
:1004800004A04FEA8A0ACDF804A0DDF800A04FEAE4
:100490004A0ACDF800A0521CDDF808A04FEA5A0A1B
:1004A000CDF808A0DDF808A0BAF1000F8FD14460A4
:1004B0008560C6600761C0F814C0C0F81880C0F835
:1004C0001C90BDE8FE8F4FF6FF7101800021817006
:1004D000C170017141718171C1710172417281728A
:1004E0007047024613680B4201D0012000E0002053
:1004F000704701460868704702680A430260704707
:1005000002688A430260704702688A43026070474B
:1005100010B503681AB143EA0104046002E023EA5B
:100520000104046010BD01607047000029B1F94A60
:10053000D2690243F74BDA6104E0F64AD26982439A
:10054000F44BDA6170470146F24AD06820F44070FB
:100550000843D060704710B5014601F0E003202B3E
:1005600002D1EC4B1A6801E0EB4BDA6B01F01F048F
:100570000123A340134201D0012000E0002010BD60
:1005800070B5002600BF1720FFF7E5FF0546761C73
:10059000B6F5C06F01D2002DF5D01720FFF7DBFFB5
:1005A00008B1012400E00024204670BD0021DB4A90
:1005B0004FF0844303EB42129065704700B5012071
:1005C000FFF7F4FFFFF7DCFF0020FFF7BCFFD14887
:1005D000C0680020CF49C8600846406800204860D5
:1005E000084680680020886008460069002008618D
:1005F00008464069002048610846806900208861FB
:10060000C748C86100BD00B5FFF7D8FF0121C80683
:10061000FFF78CFFC048C06B40F48100BE49C8633F
:100620000846C06B00F48100C86300BDB949896801
:1006300021F00301B74A9160012802D002280ED1AF
:1006400006E0B449896841F00101B24A916007E0CF
:10065000B049896841F00301AE4A916000E000BFF3
:1006600000BF704770B5002600BF2220FFF773FF60
:100670000546761CB6F5C06F01D2002DF5D02220BC
:10068000FFF769FF08B1012400E00024204670BD97
:10069000A149C96B21F003019F4AD163012802D00F
:1006A00002280ED106E09C49C96B41F001019A4A2B
:1006B000D16307E09849C96B41F00301964AD163C1
:1006C00000E000BF00BF704770B5002600BF0D20DE
:1006D000FFF741FF0546761CB6F5C06F01D2002D2D
:1006E000F5D00D20FFF737FF08B1012400E000240A
:1006F000204670BD0146884AD06B20F07C5040EA0D
:100700000160D06370470021844A4FF0844303EBBB
:100710004212D063704701467F4AD06B20F4F81034
:1007200040EA0140D063704770B5002600BF152035
:10073000FFF711FF0546761CB6F5C06F01D2002DFC
:10074000F5D01520FFF707FF08B1012400E00024D1
:10075000204670BD30B502466E4BD86820F00300CD
:100760001043D860586820F4706040EA0120586057
:100770006C4B4FF0844404EB43139B685BB1012442
:10078000684B4FF0844505EB4313DC600024654B58
:1007900005EB4313DC6030BD0021624A08324FF0A4
:1007A000844303EB4212906070475E494FF08442ED
:1007B00002EB41118860704770B5002600BF212010
:1007C000FFF7C9FE0546761CB6F5C06F01D2002DB5
:1007D000F5D02120FFF7BFFE08B1012400E000247E
:1007E000204670BD01464B4AD06820F0F00040EA38
:1007F0000110D060704730B50246464B186920F0B2
:10080000030010431861586820F0F00040EA01101E
:100810005860444B4FF0844404EB43131B685BB1B6
:100820000124404B4FF0844505EB43135C600024EA
:100830003C4B05EB43135C6030BD0021394A0C3260
:100840004FF0844303EB4212906070470021354A19
:100850004FF0844303EB42121060704770B50026DE
:1008600000BF2020FFF777FE0546761CB6F5C06F67
:1008700001D2002DF5D02020FFF76DFE08B1012434
:1008800000E00024204670BD0021264A0C324FF0C3
:10089000844303EB4212106170470021214A0C325D
:1008A0004FF0844303EB4212106270470146194A2D
:1008B000506920F033000843506170470146154AE3
:1008C000506920F4706040EA0120506170470021B7
:1008D000144A10324FF0844303EB421250637047C6
:1008E00001460C4A906920F0F00040EA0110906146
:1008F000704700210B4A14324FF0844303EB42123D
:10090000506270470146034A906920F00F00084387
:10091000906170470000024000800D403C800D0057
:1009200010000008040002000021924A4FF08443A6
:1009300003EB4212106270472DE9FC4F0146DFF8CD
:1009400038B2DBF80CB01BF0020F01D08B4B00E08B
:100950008B4BDFF824B2DBF80CB01BF0010F00D09A
:100960005B081C46DFF810B2DBF80CB01BF0040F7C
:100970000DD0DFF804B2DBF804B0CBF3032B0BF19E
:10098000010BCDF800B0DDF800B004FB0BF4DFF88C
:10099000E8B1DBF80CB0CBF3012BBBF1000F06D0B4
:1009A000BBF1010F08D0BBF1020F26D120E0DFF828
:1009B000D0B1C1F800B025E0DFF8BCB1DBF80CB075
:1009C0004FF0080E1EEA1B1F01D1A0460DE0DFF814
:1009D000A8B1DBF80CB0CBF3021B0BF1010B4FF00D
:1009E000010E0EFA0BFEB4FBFEF8C1F8008009E020
:1009F0004FF4004BC1F800B004E049F6404BC1F899
:100A000000B000BF00BFDFF870B1DBF810B01BF022
:100A1000020F01D0594D00E0594DDFF85CB1DBF811
:100A200010B01BF0010F00D06D082F46DFF848B161
:100A3000DBF810B01BF0040F0DD0DFF83CB1DBF891
:100A400004B0CBF3031B0BF1010BCDF800B0DDF8C4
:100A500000B007FB0BF7B946DFF81CB1DBF810B0AC
:100A60001BF0100F01D04FEA5909C1F80490DFF8CC
:100A700008B1DBF818B04FEA1B1010F0080F02D1D4
:100A8000DFF8FCC00BE000F0070B0BF1010B4FF09F
:100A9000010E0EFA0BF0DFF8E8B0BBFBF0FCC1F87A
:100AA0000CC0DFF8D4B0DBF8180010F0080F04D148
:100AB000DFF8C8B0CDF804B00DE000F0070B0BF183
:100AC000010B4FF0010E0EFA0BF0DFF8B0B0BBFBDC
:100AD000F0FBCDF804B0DDF804B0C1F810B0DFF8D9
:100AE00098B0DBF814B01BF0030B06D0BBF1010F7C
:100AF00005D0BBF1020F06D103E01E4605E02E46ED
:100B000003E0264601E03E4600BF00BFDFF868B0C4
:100B1000DBF814B0CBF3011BBBF1000F06D0BBF127
:100B2000010F06D0BBF1020F08D105E04FF40042DF
:100B300006E049F6404203E0324601E0624600BF6B
:100B400000BFDFF834B0DBF814B04FEA1B2010F020
:100B5000080F01D1924609E000F0070B0BF1010BE1
:100B60004FF0010E0EFA0BF0B2FBF0FAC1F808A03C
:100B7000BDE8FC8F18000200000002400024F400D1
:100B800000127A00704770477047754600F028F8E9
:100B9000AE4605006946534620F00700854618B06A
:100BA00020B5FFF7DDFBBDE820404FF000064FF019
:100BB00000074FF000084FF0000B21F00701AC4692
:100BC000ACE8C009ACE8C009ACE8C009ACE8C009B1
:100BD0008D4670470446AFF300802046FFF7B9FA10
:100BE00000487047040000200048704708000020BB
:100BF00001491820ABBEFEE726000200704710B581
:100C0000FFF7F2FF4FF00001016010BD2C0C00084F
:100C10000000002004000000FC000008300C000868
:100C200004000020640600001801000800127A0089
:0400000508000345A7
:00000001FF
